:040000008031122811
:10000800803120007F08F0008B190B1C0E288131ED
:1000180074210B1070082000FF000900803114289B
:100028008A308400813085002030860000308700C7
:100038000A3081319C21200081315829E830F100B3
:100048000330F2007A08F4007908F3008031D120F7
:1000580080317108FB007B082000AA00E830F1001D
:100068000330F2007A08F4007908F30081310521A1
:1000780080317208FA007108F9006430F10000302C
:10008800F2007A08F4007908F3008031D120803139
:100098007108FB007B082000AB006430F1000030E1
:1000A800F2007A08F4007908F300813105218031E3
:1000B8007208FA007108F9000A30F1000030F20005
:1000C8007A08F4007908F3008031D1208031710872
:1000D800FB007B082000AC000A30F1000030F20081
:1000E8007A08F4007908F30081310521803171081C
:1000F800FB007B082000AD0022008E150E162000A4
:100108002A08203E8600870101088131312180318B
:100118000730FC007D30FB00FB0B9028FC0B90287F
:1001280022008E110E1620002B08203E8600870123
:1001380001088131312180310730FC007D30FB001E
:10014800FB0BA428FC0BA42822008E150E122000FD
:100158002C08203E86008701010881313121803139
:100168000730FC007D30FB00FB0BB828FC0BB828DF
:1001780022008E110E1220002D08203E86008701D5
:1001880001088131312180310730FC007D30FB00CE
:10019800FB0BCC28FC0BCC280800F601F7017108F2
:1001A800720403190029F801F80AF21BE528013046
:1001B800F135F20D890BDC280130F5007508F807D8
:1001C800D9280130F635F70D890BE6287208740234
:1001D800031DF02871087302031CF7287108F30245
:1001E8007208F43B76140130F236F10C890BF828CA
:1001F8000130F802031DE5287708F2007608F100BF
:1002080008007108720403192C29F601F60AF21B7A
:1002180017290130F135F20D890B0E290130F5004F
:100228007508F6070B2972087402031D1D29710849
:100238007302031C23297108F3027208F43B01308E
:10024800F236F10C890B24290130F602031D172917
:100258007408F2007308F1000800F30022008E13FE
:100268008E12F40108307402031856297308F1003D
:10027800740A3F29F136890B3E2971080139F200C9
:10028800F20EF20DF20D0E087206BF3972068E00DC
:100298008E178E130130F1007108F40708307402CC
:1002A800031C3A298E16080021008E0120008E01B9
:1002B800682901308131942181315730F9000430A7
:1002C800FA0080312220813120008D1B5D290D1B11
:1002D800682900308131942181310030F900642986
:1002E8002700151A161E7A2916120800951A961E46
:1002F8007F2996120800151B161F8429161308005B
:10030800951F0800961F08009613080003349F34B1
:1003180025340D349934493441341F3401340934B7
:10032800F10071082200031D0E1503190E110800B3
:0C033800FE0012001E00FE0B9D29003488
:020000040001F9
:04000E00E4FFFFDE2E
:00000001FF
